:03000000020E9459
:0C0E9400787FE4F6D8FD758143020EDB88
:0A123000BF86DBCFE6EDFD87FFEF80
:1011380016243F065B4F666D7D077F6F777C395EAF
:08114800797140387600FF3791
:1010BC00F5807F0A7E001210E7D2A6C2A6C2A775E1
:1010CC0080FBD2A7C2A77F017E001210E7C2A674D4
:0B10DC0024253CF8E6F5807F0A7E002A
:1010E700D3EF9400EE9400400B7D0ADDFEEF1F70F6
:0410F700EF1E80EC7C
:0110FB0022D2
:1010FC00C2A67424253A1210DFD2A6C2A6C2A775C6
:10110C0080FDD2A7C2A77F017E001210E7C2A6E520
:10111C003B901230931210BCD2A6C2A6C2A7758007
:0C112C00F7D2A7C2A77F017E000210E7E7
:10101400C2A67424253A1210DFD2A6C2A6C2A775AE
:1010240080FED2A7C2A77F017E001210E7C2A67479
:1010340024253B1210DFD2A6C2A6C2A77580FD12DA
:1010440010CED2A6C2A6C2A77580FBD2A7C2A77F24
:10105400017E001210E7C2A67424253D1210DFD2CF
:10106400A6C2A6C2A77580F7D2A7C2A77F017E0039
:031074000210E780
:091077007C007D0A120ABD8D3CCB
:10108000C2A67424253A1210DFD2A6C2A6C2A77542
:1010900080FED2A7C2A77F017E001210E7C2A6740D
:1010A00024253BF8E61210BCD2A6C2A6C2A77580C2
:0C10B000F7D2A7C2A77F017E000210E764
:100B560020B0107F2C7E011210E720B003753E01F5
:100B660030B0FDE53E64016003020C6D753A12C3B8
:100B7600E5419464E540648094804029753B01AE6C
:100B860040AF417C007D64120ABDAA04AB057D0A14
:100B96007C00AF03AE02120ABD8F3C7D0A7C00AF1B
:100BA60003AE02804BC3E5419464E54064809480C3
:100BB600501FC3E540648094804016AE40AF417C30
:100BC600007D0A120ABD8F3BAE40AF4112107780FE
:100BD60027AF41AE401212198E0A8F0B753B107C5F
:100BE600007D0A120ABD8F3CAE0AAF0B7C007D0A5F
:100BF600120ABD8D3D12101420B0107F2C7E0112FA
:100C060010E720B003753E0230B0FD20B1267F2CE0
:100C16007E011210E720B1190541E5417002054039
:100C2600C3947DE54064809480400675400075411C
:100C36007D30B1FD30B203020B697F2C7E011210AC
:100C4600E720B21BE541154170021540D3E54194FA
:100C5600C9E5406480947F50067540FF7541C930F0
:100C6600B203020B6980F8E53E64026003020DCD13
:100C7600753A11C3E5439464E54264809480402943
:100C8600753B01AE42AF437C007D64120ABDAA04E7
:100C9600AB057D0A7C00AF03AE02120ABD8F3C7D18
:100CA6000A7C00AF03AE02804BC3E5439464E54281
:100CB60064809480501FC3E542648094804016AEE1
:100CC60042AF437C007D0A120ABD8F3BAE42AF4362
:100CD6001210778027AF43AE421212198E0A8F0B7D
:100CE600753B107C007D0A120ABD8F3CAE0AAF0B25
:100CF6007C007D0A120ABD8D3D12101420B06C7F57
:100D06002C7E011210E720B003E4F53E30B0FD7FE3
:100D1600007E2E1211F2AE40AF417C017D00120A18
:100D2600BD7F007E2E1211DBAE40AF417C017D00FF
:100D3600120ABDAD077F017E2E1211DBAE42AF4314
:100D46007C017D00120ABD7F207E2E1211DBAE4291
:100D5600AF437C017D00120ABDAD077F217E2E12B6
:100D660011DBAD3F7F557E2E1211DB20B1267F2C85
:100D76007E011210E720B1190543E54370020542D2
:100D8600C3947DE5426480948040067542007543B5
:100D96007D30B1FD30B203020C6D7F2C7E01121046
:100DA600E720B21BE543154370021542D3E5439491
:100DB600C9E5426480947F50067542FF7543C93089
:070DC600B203020C6D80F87E
:010DCD002203
:100F2000AE21AF227C007D64120ABD8F3AAE21AFA4
:100F3000227C007D64120ABD8D23E52375F00A84AE
:100F4000F53BE52375F00A8485F03C120B56121030
:100F5000FCAE21AF227C007D0A120ABDD3EF95437F
:100F6000E5426480F8EE6480985002C293D3EF9516
:100F700043E5426480F8EE6480984013EF9541E5C4
:100F8000406480F8EE6480985005D2A37590FFC34A
:100F9000EF9541E5406480F8EE6480984002C2908D
:010FA000222E
:100DCE007F017E2E1211C37540008F41E5417541A2
:100DDE0000F5407F007E2E1211C3EF4241D3E54154
:100DEE0094C8E54064809480400BE42541F541743D
:100DFE00FF3540F5407F217E2E1211C37542008FC4
:100E0E0043E543754300F5427F207E2E1211C3EF5A
:100E1E004243D3E54394C8E54264809480400BE49A
:100E2E002543F54374FF3542F5427F557E2E121150
:100E3E00C38F3FE53F6416600F75400075411E7508
:100E4E004200754314753F167F967E001210E7E43C
:100E5E00F508F509120FA10509E50970020508C389
:100E6E009450E508940040EC120FA1E4F508F50942
:100E7E00120F200509E50970020508C39464E50800
:060E8E00940040EC80E23C
:09123A00C2AF53E71843E781221B
:0912430053E77FE4F5E6D2AF2287
:0B12250012123A75E64675E6B9002289
:1011C300AD07AC068CE3EDF5E453E5F843E5011216
:0811D3001225121243AFE222C3
:1011F200EE54FEFEF5E3E4F5E453E5F843E50312AD
:05120200122502124359
:1011DB00AB07AA068AE3EBF5E453E5F843E5028D8A
:0711EB00E21212250212437B
:10115000C102C101C100011000010F00010E000118
:0211600011007C
:071207001211A97F647E00B3
:0B120E00EF1FAC0670011E4C70F622B2
:10116300E4FDD2A27F08FE12120EC2A27F507E00BF
:1011730012120ED2A27F0E7E0012120EA2A2E4332E
:08118300FD7F147E0002120E34
:10118B00E4FD7B08C2A2EDC313FDD2A230A2034340
:0D119B0005807F047E0012120EDBE9AF0517
:0111A8002224
:0211A900AD0790
:1011AB007B08C2A2ED1392A27F057E0012120ED213
:0711BB00A2EDC313FDDBEB05
:0111C200220A
:100FA100E4FAFF1211637FCC1211A97F44121207D8
:100FB1001211637FCC1211A97FBE12120712118B7D
:100FC100AA0712118B7521008F22E522752200F5E7
:100FD10021AF02EF4222E4AC21AD22120A03E4FB6D
:100FE100FA7980783D1208F88F0D8E0C8D0B8C0AE2
:100FF100E4FFFE7D207C41AB0DAA0CA90BA80A12CF
:1010010008F8E4FBFAF9783F120807120A3C8E212E
:021011008F222C
:0110130022BA
:10080000020AA8E86480F8E933E83360110460F074
:10081000ED33EC337009E8FCE9FDEAFEEBFF22045E
:1008200060DED3EB9FEA9EE99DE8C2E78CF0C2F759
:1008300095F0400CE8CCF8E9CDF9EACEFAEBCFFB25
:10084000120A7385D0F05804700320D5B3E8047001
:10085000075002B2D5020AB292D5EC0460F7E4CC9C
:10086000C0E0C398F8603B94186008400DD0E0FBEE
:10087000020A8AE4FBFAC9FC8028E830E406E4C9ED
:10088000FBE4CAFCE830E305E4C9CACBFCE8540742
:100890006010F8C3E913F9EA13FAEB13FBEC13FC4D
:1008A000D8F130F52FC3E49CFCEF9BFFEE9AFEEDF0
:1008B00099FDD0E0FBEF4E4D4C701222DB03020A93
:1008C000AFEC2CFCEF33FFEE33FEED33FDED30E704
:1008D000EB020A8AEF2BFFEE3AFEED39FDD0E0FB8A
:1008E00050130BBB0003020AB2ED13FDEE13FEEF33
:0808F00013FFEC13FC020A8A5D
:1008F800EC4D6011E8497017ED33EC3304600DE4FA
:10090800FCFFFEFD22E933E8330470F8020AA8125E
:100918000A7358046009E4CC24815006285009025F
:100928000AB2284003020AAFC0E0EB4A7044B9801B
:1009380006D0E0FB020A9EEF4E701CBD8008EBFF5C
:10094800EAFEE9FD80EBE98DF0A4FEE5F00209E19D
:10095800E9CDF9EAFEEBFFEF89F0A4FCE5F0CE89DA
:10096800F0A42EFFE435F0CD89F0A42DFEE435F097
:100978008067EF4E7005BD80D780C3EF8BF0A4ACC5
:10098800F0EE8BF0A42CFCE435F0F8EF8AF0A42C00
:10099800E5F038FCE433CB8DF0A42CFCE5F03BF813
:1009A800EE8AF0A42CFCE5F038F8E433CF89F0A403
:1009B8002CFCE5F038CF3400CE89F0A42FFFE5F009
:1009C8003EFEE433C98DF0A42EFEE5F039CD8AF061
:1009D800A42FFFE5F03EFEE43DFD33D0E0FB5007D9
:1009E8000BBB000F020AB2EC2CFCEF33FFEE33FE18
:0609F800ED33FD020A8A46
:1009FE0075F020800E75F010800575F0087D007E74
:100A0E00007F003392D530D503120AF3EC33401039
:100A1E00EF33FFEE33FEED33FDEC33FCD5F0ED227C
:0E0A2E00E5F0247EA2D513CC92E7CDCEFF22B8
:100A3C00EDD2E7CD33EC3392D524814006E4FFFEB2
:100A4C00FDFC22FCE4CFCECDCC24E0501174FF8011
:100A5C00EDC3CC13CCCD13CDCE13CECF13CF0470AE
:070A6C00F030D5DE020AF3B1
:100A7300E9D2E7C933E833F892D5EDD2E7CD33ECC9
:070A830033FC5002B2D52242
:100A8A00EC30E7100FBF000C0EBE00080DBD0004CD
:100A9A000BEB6014A2D5EB13FCED92E7FD2274FF79
:100AAA00FCFDFEFF22E480F8A2D574FF13FC7D80D2
:030ABA00E480EFE6
:100EA000020DCEE493A3F8E493A34003F68001F28D
:100EB00008DFF48029E493A3F85407240CC8C33353
:100EC000C4540F4420C8834004F456800146F6DF22
:100ED000E4800B0102040810204080901138E47E69
:100EE000019360BCA3FF543F30E509541FFEE49317
:100EF000A360010ECF54C025E060A840B8E493A3DE
:100F0000FAE493A3F8E493A3C8C582C8CAC583CA08
:100F1000F0A3C8C582C8CAC583CADFE9DEE780BEC0
:01116200008C
:100ABD00C2D5EC30E709B2D5E4C39DFDE49CFCEE54
:100ACD0030E715B2D5E4C39FFFE49EFE120B01C3C0
:100ADD00E49DFDE49CFC8003120B0130D507C3E4BB
:060AED009FFFE49EFE22C3
:0E0AF300C3E49FFFE49EFEE49DFDE49CFC2214
:0C121900EE30E707C3E49FFFE49EFE22D6
:100B0100BC000BBE0029EF8DF084FFADF022E4CCD8
:100B1100F875F008EF2FFFEE33FEEC33FCEE9DECA1
:100B2100984005FCEE9DFE0FD5F0E9E4CEFD22EDE7
:100B3100F8F5F0EE8420D21CFEADF075F008EF2F31
:100B4100FFED33FD4007985006D5F0F222C398FD22
:050B51000FD5F0EA22BF
:00000001FF
